{
  "contractName": "Check",
  "abi": [
    {
      "constant": true,
      "inputs": [
        {
          "internalType": "string",
          "name": "etapa",
          "type": "string"
        }
      ],
      "name": "checkProduto",
      "outputs": [
        {
          "internalType": "string",
          "name": "",
          "type": "string"
        }
      ],
      "payable": false,
      "stateMutability": "pure",
      "type": "function"
    }
  ],
  "bytecode": "0x608060405234801561001057600080fd5b50610423806100206000396000f3fe608060405234801561001057600080fd5b506004361061002b5760003560e01c8063fb611ee414610030575b600080fd5b6100e96004803603602081101561004657600080fd5b810190808035906020019064010000000081111561006357600080fd5b82018360208201111561007557600080fd5b8035906020019184600183028401116401000000008311171561009757600080fd5b91908080601f016020809104026020016040519081016040528093929190818152602001838380828437600081840152601f19601f820116905080830192505050505050509192919290505050610164565b6040518080602001828103825283818151815260200191508051906020019080838360005b8381101561012957808201518184015260208101905061010e565b50505050905090810190601f1680156101565780820380516001836020036101000a031916815260200191505b509250505060405180910390f35b606060405160200180807f506c616e746163616f0000000000000000000000000000000000000000000000815250600901905060405160208183030381529060405280519060200120826040516020018082805190602001908083835b602083106101e457805182526020820191506020810190506020830392506101c1565b6001836020036101000a03801982511681845116808217855250505050505090500191505060405160208183030381529060405280519060200120141561023c576040518060200160405280600081525090506103e9565b60405160200180807f436f6c6865697461000000000000000000000000000000000000000000000000815250600801905060405160208183030381529060405280519060200120826040516020018082805190602001908083835b602083106102ba5780518252602082019150602081019050602083039250610297565b6001836020036101000a038019825116818451168082178552505050505050905001915050604051602081830303815290604052805190602001201415610312576040518060200160405280600081525090506103e9565b60405160200180807f5472616e73706f72746500000000000000000000000000000000000000000000815250600a01905060405160208183030381529060405280519060200120826040516020018082805190602001908083835b60208310610390578051825260208201915060208101905060208303925061036d565b6001836020036101000a0380198251168184511680821785525050505050509050019150506040516020818303038152906040528051906020012014156103e8576040518060200160405280600081525090506103e9565b5b91905056fea265627a7a723158202400ccf7fe96184c04edf3d3ac9ad2322891b49d53c49eb5abca38d3d231a0d864736f6c634300050c0032",
  "source": "pragma solidity ^0.5.0;\n\ncontract Check {\n    function checkProduto( string memory etapa) public pure returns (string memory){\n        if (keccak256(abi.encodePacked((etapa))) == keccak256(abi.encodePacked((\"Plantacao\")))){\n\n            return \"\";\n        }\n\n        else if (keccak256(abi.encodePacked((etapa))) == keccak256(abi.encodePacked((\"Colheita\")))){\n\n            return \"\";\n        }\n\n        else if (keccak256(abi.encodePacked((etapa))) == keccak256(abi.encodePacked((\"Transporte\")))){\n\n            return \"\";\n        }\n    }\n}",
  "sourcePath": "/home/user/Documents/Ativos/Projeto/contracts/Check.sol",
  "compiler": {
    "name": "solc",
    "version": "0.5.12+commit.7709ece9.Emscripten.clang"
  },
  "schemaVersion": "3.0.19",
  "updatedAt": "2019-12-02T21:44:35.407Z",
  "devdoc": {
    "methods": {}
  },
  "userdoc": {
    "methods": {}
  }
}