{
  "contractName": "Colheita",
  "abi": [
    {
      "constant": true,
      "inputs": [],
      "name": "ColheitaCount",
      "outputs": [
        {
          "internalType": "uint256",
          "name": "",
          "type": "uint256"
        }
      ],
      "payable": false,
      "stateMutability": "view",
      "type": "function"
    },
    {
      "constant": true,
      "inputs": [
        {
          "internalType": "uint256",
          "name": "",
          "type": "uint256"
        }
      ],
      "name": "Colhidos",
      "outputs": [
        {
          "internalType": "uint256",
          "name": "id",
          "type": "uint256"
        },
        {
          "internalType": "string",
          "name": "produto",
          "type": "string"
        },
        {
          "internalType": "int256",
          "name": "quantidade",
          "type": "int256"
        },
        {
          "internalType": "string",
          "name": "qualidade",
          "type": "string"
        },
        {
          "internalType": "uint256",
          "name": "lote",
          "type": "uint256"
        }
      ],
      "payable": false,
      "stateMutability": "view",
      "type": "function"
    },
    {
      "constant": false,
      "inputs": [
        {
          "internalType": "string",
          "name": "_produto",
          "type": "string"
        },
        {
          "internalType": "int256",
          "name": "_quantidade",
          "type": "int256"
        },
        {
          "internalType": "string",
          "name": "_qualidade",
          "type": "string"
        },
        {
          "internalType": "uint256",
          "name": "lote",
          "type": "uint256"
        }
      ],
      "name": "addColheita",
      "outputs": [],
      "payable": false,
      "stateMutability": "nonpayable",
      "type": "function"
    },
    {
      "constant": true,
      "inputs": [
        {
          "internalType": "uint256",
          "name": "id",
          "type": "uint256"
        }
      ],
      "name": "getColheitaProduto",
      "outputs": [
        {
          "internalType": "string",
          "name": "",
          "type": "string"
        }
      ],
      "payable": false,
      "stateMutability": "view",
      "type": "function"
    },
    {
      "constant": true,
      "inputs": [
        {
          "internalType": "uint256",
          "name": "id",
          "type": "uint256"
        }
      ],
      "name": "getColheitaQuantidade",
      "outputs": [
        {
          "internalType": "int256",
          "name": "",
          "type": "int256"
        }
      ],
      "payable": false,
      "stateMutability": "view",
      "type": "function"
    },
    {
      "constant": true,
      "inputs": [
        {
          "internalType": "uint256",
          "name": "id",
          "type": "uint256"
        }
      ],
      "name": "getColheitaQualidade",
      "outputs": [
        {
          "internalType": "string",
          "name": "",
          "type": "string"
        }
      ],
      "payable": false,
      "stateMutability": "view",
      "type": "function"
    },
    {
      "constant": true,
      "inputs": [
        {
          "internalType": "uint256",
          "name": "id",
          "type": "uint256"
        }
      ],
      "name": "getColheitaLote",
      "outputs": [
        {
          "internalType": "uint256",
          "name": "",
          "type": "uint256"
        }
      ],
      "payable": false,
      "stateMutability": "view",
      "type": "function"
    },
    {
      "constant": true,
      "inputs": [
        {
          "internalType": "uint256",
          "name": "lote",
          "type": "uint256"
        }
      ],
      "name": "getColheitaIdPorLote",
      "outputs": [
        {
          "internalType": "uint256[]",
          "name": "",
          "type": "uint256[]"
        }
      ],
      "payable": false,
      "stateMutability": "view",
      "type": "function"
    }
  ],
  "bytecode": "0x608060405234801561001057600080fd5b50610af2806100206000396000f3fe608060405234801561001057600080fd5b50600436106100885760003560e01c8063c462acaf1161005b578063c462acaf1461035f578063d95250a614610487578063e763fec1146104c9578063efb230dd1461050b57610088565b80630ea9b2ec1461008d5780637208569814610134578063827dae9a146101db57806395991999146101f9575b600080fd5b6100b9600480360360208110156100a357600080fd5b810190808035906020019092919050505061058e565b6040518080602001828103825283818151815260200191508051906020019080838360005b838110156100f95780820151818401526020810190506100de565b50505050905090810190601f1680156101265780820380516001836020036101000a031916815260200191505b509250505060405180910390f35b6101606004803603602081101561014a57600080fd5b8101908080359060200190929190505050610645565b6040518080602001828103825283818151815260200191508051906020019080838360005b838110156101a0578082015181840152602081019050610185565b50505050905090810190601f1680156101cd5780820380516001836020036101000a031916815260200191505b509250505060405180910390f35b6101e36106fc565b6040518082815260200191505060405180910390f35b61035d6004803603608081101561020f57600080fd5b810190808035906020019064010000000081111561022c57600080fd5b82018360208201111561023e57600080fd5b8035906020019184600183028401116401000000008311171561026057600080fd5b91908080601f016020809104026020016040519081016040528093929190818152602001838380828437600081840152601f19601f82011690508083019250505050505050919291929080359060200190929190803590602001906401000000008111156102cd57600080fd5b8201836020820111156102df57600080fd5b8035906020019184600183028401116401000000008311171561030157600080fd5b91908080601f016020809104026020016040519081016040528093929190818152602001838380828437600081840152601f19601f82011690508083019250505050505050919291929080359060200190929190505050610702565b005b61038b6004803603602081101561037557600080fd5b81019080803590602001909291905050506107b4565b604051808681526020018060200185815260200180602001848152602001838103835287818151815260200191508051906020019080838360005b838110156103e15780820151818401526020810190506103c6565b50505050905090810190601f16801561040e5780820380516001836020036101000a031916815260200191505b50838103825285818151815260200191508051906020019080838360005b8381101561044757808201518184015260208101905061042c565b50505050905090810190601f1680156104745780820380516001836020036101000a031916815260200191505b5097505050505050505060405180910390f35b6104b36004803603602081101561049d57600080fd5b810190808035906020019092919050505061091a565b6040518082815260200191505060405180910390f35b6104f5600480360360208110156104df57600080fd5b8101908080359060200190929190505050610939565b6040518082815260200191505060405180910390f35b6105376004803603602081101561052157600080fd5b8101908080359060200190929190505050610958565b6040518080602001828103825283818151815260200191508051906020019060200280838360005b8381101561057a57808201518184015260208101905061055f565b505050509050019250505060405180910390f35b60606000808381526020019081526020016000206001018054600181600116156101000203166002900480601f0160208091040260200160405190810160405280929190818152602001828054600181600116156101000203166002900480156106395780601f1061060e57610100808354040283529160200191610639565b820191906000526020600020905b81548152906001019060200180831161061c57829003601f168201915b50505050509050919050565b60606000808381526020019081526020016000206003018054600181600116156101000203166002900480601f0160208091040260200160405190810160405280929190818152602001828054600181600116156101000203166002900480156106f05780601f106106c5576101008083540402835291602001916106f0565b820191906000526020600020905b8154815290600101906020018083116106d357829003601f168201915b50505050509050919050565b60015481565b6001600081548092919060010191905055506040518060a0016040528060015481526020018581526020018481526020018381526020018281525060008060018054038152602001908152602001600020600082015181600001556020820151816001019080519060200190610779929190610a18565b506040820151816002015560608201518160030190805190602001906107a0929190610a18565b506080820151816004015590505050505050565b6000602052806000526040600020600091509050806000015490806001018054600181600116156101000203166002900480601f0160208091040260200160405190810160405280929190818152602001828054600181600116156101000203166002900480156108665780601f1061083b57610100808354040283529160200191610866565b820191906000526020600020905b81548152906001019060200180831161084957829003601f168201915b505050505090806002015490806003018054600181600116156101000203166002900480601f01602080910402602001604051908101604052809291908181526020018280546001816001161561010002031660029004801561090a5780601f106108df5761010080835404028352916020019161090a565b820191906000526020600020905b8154815290600101906020018083116108ed57829003601f168201915b5050505050908060040154905085565b6000806000838152602001908152602001600020600401549050919050565b6000806000838152602001908152602001600020600201549050919050565b60608060015460405190808252806020026020018201604052801561098c5781602001602082028038833980820191505090505b509050600080905060008090505b6001548160ff1611610a0d576000808260ff16815260200190815260200160002060040154851415610a00576000808260ff168152602001908152602001600020600001548383815181106109eb57fe5b60200260200101818152505081806001019250505b808060010191505061099a565b508192505050919050565b828054600181600116156101000203166002900490600052602060002090601f016020900481019282601f10610a5957805160ff1916838001178555610a87565b82800160010185558215610a87579182015b82811115610a86578251825591602001919060010190610a6b565b5b509050610a949190610a98565b5090565b610aba91905b80821115610ab6576000816000905550600101610a9e565b5090565b9056fea265627a7a723158202c475ad7e5675a58b85b8045072d1d5706a495cd314f98613dcf387f11e3970664736f6c634300050c0032",
  "source": "pragma solidity ^0.5.0;\n\ncontract Colheita {\n    struct Colhido {\n        uint id;\n        string produto;\n        int quantidade;\n        string qualidade;\n        uint lote;\n    }\n\n    mapping(uint => Colhido) public Colhidos;\n\n    uint public ColheitaCount;\n\n    function addColheita(string memory _produto, int _quantidade, string  memory _qualidade, uint lote) public {\n        ColheitaCount ++;\n        Colhidos[ColheitaCount-1] = Colhido(ColheitaCount, _produto, _quantidade,_qualidade, lote);\n    }\n\n    function getColheitaProduto(uint id) public view returns (string memory){\n        return Colhidos[id].produto;\n    }\n    function getColheitaQuantidade(uint id) public view returns (int){\n        return Colhidos[id].quantidade;\n    }\n    function getColheitaQualidade(uint id) public view returns (string memory){\n        return Colhidos[id].qualidade;\n    }\n    function getColheitaLote(uint id) public view returns (uint){\n        return Colhidos[id].lote;\n    }\n    function getColheitaIdPorLote(uint lote) public view returns (uint[] memory){\n\n        uint[] memory array = new uint[](ColheitaCount);\n        uint j = 0;\n        for(uint8 i = 0; i <= ColheitaCount; i++){\n            if (lote==Colhidos[i].lote){\n                array[j] = (Colhidos[i].id);\n                j++;\n            }\n        }\n        return array;\n    }\n}\n\n\n",
  "sourcePath": "/home/user/Documents/Ativos/Projeto/contracts/Colheita.sol",
  "compiler": {
    "name": "solc",
    "version": "0.5.12+commit.7709ece9.Emscripten.clang"
  },
  "schemaVersion": "3.0.19",
  "updatedAt": "2019-12-02T21:44:35.409Z",
  "devdoc": {
    "methods": {}
  },
  "userdoc": {
    "methods": {}
  }
}