{
  "contractName": "Plantacao",
  "abi": [
    {
      "constant": true,
      "inputs": [],
      "name": "PlantacaoCount",
      "outputs": [
        {
          "internalType": "uint256",
          "name": "",
          "type": "uint256"
        }
      ],
      "payable": false,
      "stateMutability": "view",
      "type": "function"
    },
    {
      "constant": true,
      "inputs": [
        {
          "internalType": "uint256",
          "name": "",
          "type": "uint256"
        }
      ],
      "name": "Plantados",
      "outputs": [
        {
          "internalType": "uint256",
          "name": "id",
          "type": "uint256"
        },
        {
          "internalType": "string",
          "name": "produto",
          "type": "string"
        },
        {
          "internalType": "int256",
          "name": "quantidade",
          "type": "int256"
        },
        {
          "internalType": "uint256",
          "name": "lote",
          "type": "uint256"
        }
      ],
      "payable": false,
      "stateMutability": "view",
      "type": "function"
    },
    {
      "constant": false,
      "inputs": [
        {
          "internalType": "string",
          "name": "_produto",
          "type": "string"
        },
        {
          "internalType": "int256",
          "name": "_quantidade",
          "type": "int256"
        },
        {
          "internalType": "uint256",
          "name": "lote",
          "type": "uint256"
        }
      ],
      "name": "addPlantacao",
      "outputs": [],
      "payable": false,
      "stateMutability": "nonpayable",
      "type": "function"
    },
    {
      "constant": true,
      "inputs": [
        {
          "internalType": "uint256",
          "name": "id",
          "type": "uint256"
        }
      ],
      "name": "getPlantacaoProduto",
      "outputs": [
        {
          "internalType": "string",
          "name": "",
          "type": "string"
        }
      ],
      "payable": false,
      "stateMutability": "view",
      "type": "function"
    },
    {
      "constant": true,
      "inputs": [
        {
          "internalType": "uint256",
          "name": "id",
          "type": "uint256"
        }
      ],
      "name": "getPlantacaoQuantidade",
      "outputs": [
        {
          "internalType": "int256",
          "name": "",
          "type": "int256"
        }
      ],
      "payable": false,
      "stateMutability": "view",
      "type": "function"
    },
    {
      "constant": true,
      "inputs": [
        {
          "internalType": "uint256",
          "name": "id",
          "type": "uint256"
        }
      ],
      "name": "getPlantacaoLote",
      "outputs": [
        {
          "internalType": "uint256",
          "name": "",
          "type": "uint256"
        }
      ],
      "payable": false,
      "stateMutability": "view",
      "type": "function"
    },
    {
      "constant": true,
      "inputs": [
        {
          "internalType": "uint256",
          "name": "lote",
          "type": "uint256"
        }
      ],
      "name": "getPlantacaoIdPorLote",
      "outputs": [
        {
          "internalType": "uint256[]",
          "name": "",
          "type": "uint256[]"
        }
      ],
      "payable": false,
      "stateMutability": "view",
      "type": "function"
    }
  ],
  "bytecode": "0x608060405234801561001057600080fd5b506107c4806100206000396000f3fe608060405234801561001057600080fd5b506004361061007d5760003560e01c8063a76e526c1161005b578063a76e526c146101ad578063d7d41e7d1461027c578063f4f234dd14610338578063fb55bb05146103bb5761007d565b806344e218651461008257806346fcf29e146100c45780635c80b5d61461016b575b600080fd5b6100ae6004803603602081101561009857600080fd5b81019080803590602001909291905050506103d9565b6040518082815260200191505060405180910390f35b6100f0600480360360208110156100da57600080fd5b81019080803590602001909291905050506103f8565b6040518080602001828103825283818151815260200191508051906020019080838360005b83811015610130578082015181840152602081019050610115565b50505050905090810190601f16801561015d5780820380516001836020036101000a031916815260200191505b509250505060405180910390f35b6101976004803603602081101561018157600080fd5b81019080803590602001909291905050506104af565b6040518082815260200191505060405180910390f35b61027a600480360360608110156101c357600080fd5b81019080803590602001906401000000008111156101e057600080fd5b8201836020820111156101f257600080fd5b8035906020019184600183028401116401000000008311171561021457600080fd5b91908080601f016020809104026020016040519081016040528093929190818152602001838380828437600081840152601f19601f82011690508083019250505050505050919291929080359060200190929190803590602001909291905050506104ce565b005b6102a86004803603602081101561029257600080fd5b810190808035906020019092919050505061055c565b6040518085815260200180602001848152602001838152602001828103825285818151815260200191508051906020019080838360005b838110156102fa5780820151818401526020810190506102df565b50505050905090810190601f1680156103275780820380516001836020036101000a031916815260200191505b509550505050505060405180910390f35b6103646004803603602081101561034e57600080fd5b8101908080359060200190929190505050610624565b6040518080602001828103825283818151815260200191508051906020019060200280838360005b838110156103a757808201518184015260208101905061038c565b505050509050019250505060405180910390f35b6103c36106e4565b6040518082815260200191505060405180910390f35b6000806000838152602001908152602001600020600201549050919050565b60606000808381526020019081526020016000206001018054600181600116156101000203166002900480601f0160208091040260200160405190810160405280929190818152602001828054600181600116156101000203166002900480156104a35780601f10610478576101008083540402835291602001916104a3565b820191906000526020600020905b81548152906001019060200180831161048657829003601f168201915b50505050509050919050565b6000806000838152602001908152602001600020600301549050919050565b60016000815480929190600101919050555060405180608001604052806001548152602001848152602001838152602001828152506000806001805403815260200190815260200160002060008201518160000155602082015181600101908051906020019061053f9291906106ea565b506040820151816002015560608201518160030155905050505050565b6000602052806000526040600020600091509050806000015490806001018054600181600116156101000203166002900480601f01602080910402602001604051908101604052809291908181526020018280546001816001161561010002031660029004801561060e5780601f106105e35761010080835404028352916020019161060e565b820191906000526020600020905b8154815290600101906020018083116105f157829003601f168201915b5050505050908060020154908060030154905084565b6060806001546040519080825280602002602001820160405280156106585781602001602082028038833980820191505090505b509050600080905060008090505b6001548160ff16116106d9576000808260ff168152602001908152602001600020600301548514156106cc576000808260ff168152602001908152602001600020600001548383815181106106b757fe5b60200260200101818152505081806001019250505b8080600101915050610666565b508192505050919050565b60015481565b828054600181600116156101000203166002900490600052602060002090601f016020900481019282601f1061072b57805160ff1916838001178555610759565b82800160010185558215610759579182015b8281111561075857825182559160200191906001019061073d565b5b509050610766919061076a565b5090565b61078c91905b80821115610788576000816000905550600101610770565b5090565b9056fea265627a7a723158207a9c578b316018eda987d8bfff9adf2c69b86246e99436da37ec6fc84281a2a564736f6c634300050c0032",
  "source": "pragma solidity ^0.5.0;\n\ncontract Plantacao {\n    struct Plantou {\n        uint id;\n        string produto;\n        int quantidade;\n        uint lote;\n    }\n\n    mapping(uint => Plantou) public Plantados;\n\n    uint public PlantacaoCount;\n\n    //uint public ColheitaLote;\n\n    function addPlantacao(string memory _produto, int _quantidade, uint lote) public {\n        PlantacaoCount ++;\n        //ColheitaLote ++;\n        Plantados[PlantacaoCount-1] = Plantou(PlantacaoCount, _produto, _quantidade,lote);\n    }\n\n    function getPlantacaoProduto(uint id) public view returns (string memory){\n        return Plantados[id].produto;\n    }\n\n    function getPlantacaoQuantidade(uint id) public view returns (int){\n        return Plantados[id].quantidade;\n    }\n    function getPlantacaoLote(uint id) public view returns (uint){\n        return Plantados[id].lote;\n    }\n\n    function getPlantacaoIdPorLote(uint lote) public view returns (uint[] memory){\n\n        uint[] memory array = new uint[](PlantacaoCount);\n        uint j = 0;\n        for(uint8 i = 0; i <= PlantacaoCount; i++){\n            if (lote==Plantados[i].lote){\n                array[j] = (Plantados[i].id);\n                j++;\n            }\n        }\n        return array;\n    }\n\n}",
  "sourcePath": "/home/user/Documents/Ativos/Projeto/contracts/Plantacao.sol",
  "compiler": {
    "name": "solc",
    "version": "0.5.12+commit.7709ece9.Emscripten.clang"
  },
  "schemaVersion": "3.0.19",
  "updatedAt": "2019-12-02T21:44:35.411Z",
  "devdoc": {
    "methods": {}
  },
  "userdoc": {
    "methods": {}
  }
}