{
  "contractName": "Supply",
  "abi": [
    {
      "constant": true,
      "inputs": [],
      "name": "ColheitaCount",
      "outputs": [
        {
          "internalType": "uint256",
          "name": "",
          "type": "uint256"
        }
      ],
      "payable": false,
      "stateMutability": "view",
      "type": "function"
    },
    {
      "constant": true,
      "inputs": [
        {
          "internalType": "uint256",
          "name": "",
          "type": "uint256"
        }
      ],
      "name": "Colhidos",
      "outputs": [
        {
          "internalType": "uint256",
          "name": "id",
          "type": "uint256"
        },
        {
          "internalType": "string",
          "name": "produto",
          "type": "string"
        },
        {
          "internalType": "int256",
          "name": "quantidade",
          "type": "int256"
        },
        {
          "internalType": "string",
          "name": "qualidade",
          "type": "string"
        },
        {
          "internalType": "uint256",
          "name": "lote",
          "type": "uint256"
        },
        {
          "internalType": "address",
          "name": "owner",
          "type": "address"
        }
      ],
      "payable": false,
      "stateMutability": "view",
      "type": "function"
    },
    {
      "constant": true,
      "inputs": [],
      "name": "PlantacaoCount",
      "outputs": [
        {
          "internalType": "uint256",
          "name": "",
          "type": "uint256"
        }
      ],
      "payable": false,
      "stateMutability": "view",
      "type": "function"
    },
    {
      "constant": true,
      "inputs": [
        {
          "internalType": "uint256",
          "name": "",
          "type": "uint256"
        }
      ],
      "name": "Recebidos",
      "outputs": [
        {
          "internalType": "uint256",
          "name": "id",
          "type": "uint256"
        },
        {
          "internalType": "string",
          "name": "produto",
          "type": "string"
        },
        {
          "internalType": "int256",
          "name": "quantidade",
          "type": "int256"
        },
        {
          "internalType": "string",
          "name": "qualidade",
          "type": "string"
        },
        {
          "internalType": "uint256",
          "name": "lote",
          "type": "uint256"
        },
        {
          "internalType": "address",
          "name": "owner",
          "type": "address"
        }
      ],
      "payable": false,
      "stateMutability": "view",
      "type": "function"
    },
    {
      "constant": true,
      "inputs": [
        {
          "internalType": "uint256",
          "name": "",
          "type": "uint256"
        }
      ],
      "name": "Transportados",
      "outputs": [
        {
          "internalType": "uint256",
          "name": "id",
          "type": "uint256"
        },
        {
          "internalType": "string",
          "name": "produto",
          "type": "string"
        },
        {
          "internalType": "int256",
          "name": "quantidade",
          "type": "int256"
        },
        {
          "internalType": "string",
          "name": "qualidade",
          "type": "string"
        },
        {
          "internalType": "uint256",
          "name": "lote",
          "type": "uint256"
        },
        {
          "internalType": "address",
          "name": "owner",
          "type": "address"
        }
      ],
      "payable": false,
      "stateMutability": "view",
      "type": "function"
    },
    {
      "constant": true,
      "inputs": [],
      "name": "TransporteCount",
      "outputs": [
        {
          "internalType": "uint256",
          "name": "",
          "type": "uint256"
        }
      ],
      "payable": false,
      "stateMutability": "view",
      "type": "function"
    },
    {
      "constant": false,
      "inputs": [
        {
          "internalType": "string",
          "name": "_produto",
          "type": "string"
        },
        {
          "internalType": "int256",
          "name": "_quantidade",
          "type": "int256"
        },
        {
          "internalType": "string",
          "name": "_qualidade",
          "type": "string"
        },
        {
          "internalType": "uint256",
          "name": "lote",
          "type": "uint256"
        }
      ],
      "name": "addRecebimento",
      "outputs": [],
      "payable": false,
      "stateMutability": "nonpayable",
      "type": "function"
    },
    {
      "constant": false,
      "inputs": [
        {
          "internalType": "string",
          "name": "_produto",
          "type": "string"
        },
        {
          "internalType": "int256",
          "name": "_quantidade",
          "type": "int256"
        },
        {
          "internalType": "string",
          "name": "_qualidade",
          "type": "string"
        },
        {
          "internalType": "uint256",
          "name": "lote",
          "type": "uint256"
        }
      ],
      "name": "addColheita",
      "outputs": [],
      "payable": false,
      "stateMutability": "nonpayable",
      "type": "function"
    },
    {
      "constant": false,
      "inputs": [
        {
          "internalType": "string",
          "name": "_produto",
          "type": "string"
        },
        {
          "internalType": "int256",
          "name": "_quantidade",
          "type": "int256"
        },
        {
          "internalType": "string",
          "name": "_qualidade",
          "type": "string"
        },
        {
          "internalType": "uint256",
          "name": "lote",
          "type": "uint256"
        }
      ],
      "name": "addTransporte",
      "outputs": [],
      "payable": false,
      "stateMutability": "nonpayable",
      "type": "function"
    },
    {
      "constant": true,
      "inputs": [
        {
          "internalType": "uint256",
          "name": "id",
          "type": "uint256"
        }
      ],
      "name": "getRecebimentoProduto",
      "outputs": [
        {
          "internalType": "string",
          "name": "",
          "type": "string"
        }
      ],
      "payable": false,
      "stateMutability": "view",
      "type": "function"
    },
    {
      "constant": true,
      "inputs": [
        {
          "internalType": "uint256",
          "name": "id",
          "type": "uint256"
        }
      ],
      "name": "getColheitaProduto",
      "outputs": [
        {
          "internalType": "string",
          "name": "",
          "type": "string"
        }
      ],
      "payable": false,
      "stateMutability": "view",
      "type": "function"
    },
    {
      "constant": true,
      "inputs": [
        {
          "internalType": "uint256",
          "name": "id",
          "type": "uint256"
        }
      ],
      "name": "getTransporteProduto",
      "outputs": [
        {
          "internalType": "string",
          "name": "",
          "type": "string"
        }
      ],
      "payable": false,
      "stateMutability": "view",
      "type": "function"
    },
    {
      "constant": true,
      "inputs": [
        {
          "internalType": "uint256",
          "name": "id",
          "type": "uint256"
        }
      ],
      "name": "getRecebimentoQuantidade",
      "outputs": [
        {
          "internalType": "int256",
          "name": "",
          "type": "int256"
        }
      ],
      "payable": false,
      "stateMutability": "view",
      "type": "function"
    },
    {
      "constant": true,
      "inputs": [
        {
          "internalType": "uint256",
          "name": "id",
          "type": "uint256"
        }
      ],
      "name": "getColheitaQuantidade",
      "outputs": [
        {
          "internalType": "int256",
          "name": "",
          "type": "int256"
        }
      ],
      "payable": false,
      "stateMutability": "view",
      "type": "function"
    },
    {
      "constant": true,
      "inputs": [
        {
          "internalType": "uint256",
          "name": "id",
          "type": "uint256"
        }
      ],
      "name": "getTransporteQuantidade",
      "outputs": [
        {
          "internalType": "int256",
          "name": "",
          "type": "int256"
        }
      ],
      "payable": false,
      "stateMutability": "view",
      "type": "function"
    },
    {
      "constant": true,
      "inputs": [
        {
          "internalType": "uint256",
          "name": "id",
          "type": "uint256"
        }
      ],
      "name": "getRecebimentoQualidade",
      "outputs": [
        {
          "internalType": "string",
          "name": "",
          "type": "string"
        }
      ],
      "payable": false,
      "stateMutability": "view",
      "type": "function"
    },
    {
      "constant": true,
      "inputs": [
        {
          "internalType": "uint256",
          "name": "id",
          "type": "uint256"
        }
      ],
      "name": "getColheitaQualidade",
      "outputs": [
        {
          "internalType": "string",
          "name": "",
          "type": "string"
        }
      ],
      "payable": false,
      "stateMutability": "view",
      "type": "function"
    },
    {
      "constant": true,
      "inputs": [
        {
          "internalType": "uint256",
          "name": "id",
          "type": "uint256"
        }
      ],
      "name": "getTransporteQualidade",
      "outputs": [
        {
          "internalType": "string",
          "name": "",
          "type": "string"
        }
      ],
      "payable": false,
      "stateMutability": "view",
      "type": "function"
    },
    {
      "constant": true,
      "inputs": [
        {
          "internalType": "uint256",
          "name": "id",
          "type": "uint256"
        }
      ],
      "name": "getRecebimentoLote",
      "outputs": [
        {
          "internalType": "uint256",
          "name": "",
          "type": "uint256"
        }
      ],
      "payable": false,
      "stateMutability": "view",
      "type": "function"
    },
    {
      "constant": true,
      "inputs": [
        {
          "internalType": "uint256",
          "name": "id",
          "type": "uint256"
        }
      ],
      "name": "getColheitaLote",
      "outputs": [
        {
          "internalType": "uint256",
          "name": "",
          "type": "uint256"
        }
      ],
      "payable": false,
      "stateMutability": "view",
      "type": "function"
    },
    {
      "constant": true,
      "inputs": [
        {
          "internalType": "uint256",
          "name": "id",
          "type": "uint256"
        }
      ],
      "name": "getTransporteLote",
      "outputs": [
        {
          "internalType": "uint256",
          "name": "",
          "type": "uint256"
        }
      ],
      "payable": false,
      "stateMutability": "view",
      "type": "function"
    },
    {
      "constant": true,
      "inputs": [
        {
          "internalType": "uint256",
          "name": "id",
          "type": "uint256"
        }
      ],
      "name": "getRecebimentoOwner",
      "outputs": [
        {
          "internalType": "address",
          "name": "",
          "type": "address"
        }
      ],
      "payable": false,
      "stateMutability": "view",
      "type": "function"
    },
    {
      "constant": true,
      "inputs": [
        {
          "internalType": "uint256",
          "name": "id",
          "type": "uint256"
        }
      ],
      "name": "getColheitaOwner",
      "outputs": [
        {
          "internalType": "address",
          "name": "",
          "type": "address"
        }
      ],
      "payable": false,
      "stateMutability": "view",
      "type": "function"
    },
    {
      "constant": true,
      "inputs": [
        {
          "internalType": "uint256",
          "name": "id",
          "type": "uint256"
        }
      ],
      "name": "getTransporteOwner",
      "outputs": [
        {
          "internalType": "address",
          "name": "",
          "type": "address"
        }
      ],
      "payable": false,
      "stateMutability": "view",
      "type": "function"
    },
    {
      "constant": true,
      "inputs": [
        {
          "internalType": "uint256",
          "name": "lote",
          "type": "uint256"
        }
      ],
      "name": "getRecebimentoIdPorLote",
      "outputs": [
        {
          "internalType": "uint256[]",
          "name": "",
          "type": "uint256[]"
        }
      ],
      "payable": false,
      "stateMutability": "view",
      "type": "function"
    },
    {
      "constant": true,
      "inputs": [
        {
          "internalType": "uint256",
          "name": "lote",
          "type": "uint256"
        }
      ],
      "name": "getColheitaIdPorLote",
      "outputs": [
        {
          "internalType": "uint256[]",
          "name": "",
          "type": "uint256[]"
        }
      ],
      "payable": false,
      "stateMutability": "view",
      "type": "function"
    },
    {
      "constant": true,
      "inputs": [
        {
          "internalType": "uint256",
          "name": "lote",
          "type": "uint256"
        }
      ],
      "name": "getTransporteIdPorLote",
      "outputs": [
        {
          "internalType": "uint256[]",
          "name": "",
          "type": "uint256[]"
        }
      ],
      "payable": false,
      "stateMutability": "view",
      "type": "function"
    }
  ],
  "bytecode": "0x608060405234801561001057600080fd5b506123a4806100206000396000f3fe608060405234801561001057600080fd5b50600436106101a95760003560e01c8063827dae9a116100f9578063cf2fa23d11610097578063ee1062c311610071578063ee1062c314611152578063efb230dd146111d5578063f3446a7614611258578063fb55bb0514611276576101a9565b8063cf2fa23d14611060578063d95250a6146110ce578063e763fec114611110576101a9565b8063bfd70e0b116100d3578063bfd70e0b14610e13578063c44f178614610e55578063c462acaf14610e97578063c9e3783614610ff2576101a9565b8063827dae9a14610c4d5780639599199914610c6b578063be19f45f14610dd1576101a9565b80634356e9181161016657806351689c151161014057806351689c15146108f2578063596babe614610a5857806369a3ea2714610aff5780637208569814610ba6576101a9565b80634356e9181461069b57806345728e6214610801578063497dfd231461086f576101a9565b80630ea9b2ec146101ae578063169d12c61461025557806339a9b298146102975780633c89df851461033e5780634231683e1461049957806342e9b97114610540575b600080fd5b6101da600480360360208110156101c457600080fd5b8101908080359060200190929190505050611294565b6040518080602001828103825283818151815260200191508051906020019080838360005b8381101561021a5780820151818401526020810190506101ff565b50505050905090810190601f1680156102475780820380516001836020036101000a031916815260200191505b509250505060405180910390f35b6102816004803603602081101561026b57600080fd5b810190808035906020019092919050505061134f565b6040518082815260200191505060405180910390f35b6102c3600480360360208110156102ad57600080fd5b8101908080359060200190929190505050611371565b6040518080602001828103825283818151815260200191508051906020019080838360005b838110156103035780820151818401526020810190506102e8565b50505050905090810190601f1680156103305780820380516001836020036101000a031916815260200191505b509250505060405180910390f35b61036a6004803603602081101561035457600080fd5b810190808035906020019092919050505061142c565b6040518087815260200180602001868152602001806020018581526020018473ffffffffffffffffffffffffffffffffffffffff1673ffffffffffffffffffffffffffffffffffffffff168152602001838103835288818151815260200191508051906020019080838360005b838110156103f25780820151818401526020810190506103d7565b50505050905090810190601f16801561041f5780820380516001836020036101000a031916815260200191505b50838103825286818151815260200191508051906020019080838360005b8381101561045857808201518184015260208101905061043d565b50505050905090810190601f1680156104855780820380516001836020036101000a031916815260200191505b509850505050505050505060405180910390f35b6104c5600480360360208110156104af57600080fd5b81019080803590602001909291905050506115b8565b6040518080602001828103825283818151815260200191508051906020019080838360005b838110156105055780820151818401526020810190506104ea565b50505050905090810190601f1680156105325780820380516001836020036101000a031916815260200191505b509250505060405180910390f35b61056c6004803603602081101561055657600080fd5b8101908080359060200190929190505050611672565b6040518087815260200180602001868152602001806020018581526020018473ffffffffffffffffffffffffffffffffffffffff1673ffffffffffffffffffffffffffffffffffffffff168152602001838103835288818151815260200191508051906020019080838360005b838110156105f45780820151818401526020810190506105d9565b50505050905090810190601f1680156106215780820380516001836020036101000a031916815260200191505b50838103825286818151815260200191508051906020019080838360005b8381101561065a57808201518184015260208101905061063f565b50505050905090810190601f1680156106875780820380516001836020036101000a031916815260200191505b509850505050505050505060405180910390f35b6107ff600480360360808110156106b157600080fd5b81019080803590602001906401000000008111156106ce57600080fd5b8201836020820111156106e057600080fd5b8035906020019184600183028401116401000000008311171561070257600080fd5b91908080601f016020809104026020016040519081016040528093929190818152602001838380828437600081840152601f19601f820116905080830192505050505050509192919290803590602001909291908035906020019064010000000081111561076f57600080fd5b82018360208201111561078157600080fd5b803590602001918460018302840111640100000000831117156107a357600080fd5b91908080601f016020809104026020016040519081016040528093929190818152602001838380828437600081840152601f19601f820116905080830192505050505050509192919290803590602001909291905050506117fe565b005b61082d6004803603602081101561081757600080fd5b8101908080359060200190929190505050611915565b604051808273ffffffffffffffffffffffffffffffffffffffff1673ffffffffffffffffffffffffffffffffffffffff16815260200191505060405180910390f35b61089b6004803603602081101561088557600080fd5b8101908080359060200190929190505050611958565b6040518080602001828103825283818151815260200191508051906020019060200280838360005b838110156108de5780820151818401526020810190506108c3565b505050509050019250505060405180910390f35b610a566004803603608081101561090857600080fd5b810190808035906020019064010000000081111561092557600080fd5b82018360208201111561093757600080fd5b8035906020019184600183028401116401000000008311171561095957600080fd5b91908080601f016020809104026020016040519081016040528093929190818152602001838380828437600081840152601f19601f82011690508083019250505050505050919291929080359060200190929190803590602001906401000000008111156109c657600080fd5b8201836020820111156109d857600080fd5b803590602001918460018302840111640100000000831117156109fa57600080fd5b91908080601f016020809104026020016040519081016040528093929190818152602001838380828437600081840152601f19601f82011690508083019250505050505050919291929080359060200190929190505050611a18565b005b610a8460048036036020811015610a6e57600080fd5b8101908080359060200190929190505050611b2e565b6040518080602001828103825283818151815260200191508051906020019080838360005b83811015610ac4578082015181840152602081019050610aa9565b50505050905090810190601f168015610af15780820380516001836020036101000a031916815260200191505b509250505060405180910390f35b610b2b60048036036020811015610b1557600080fd5b8101908080359060200190929190505050611be9565b6040518080602001828103825283818151815260200191508051906020019080838360005b83811015610b6b578082015181840152602081019050610b50565b50505050905090810190601f168015610b985780820380516001836020036101000a031916815260200191505b509250505060405180910390f35b610bd260048036036020811015610bbc57600080fd5b8101908080359060200190929190505050611ca3565b6040518080602001828103825283818151815260200191508051906020019080838360005b83811015610c12578082015181840152602081019050610bf7565b50505050905090810190601f168015610c3f5780820380516001836020036101000a031916815260200191505b509250505060405180910390f35b610c55611d5e565b6040518082815260200191505060405180910390f35b610dcf60048036036080811015610c8157600080fd5b8101908080359060200190640100000000811115610c9e57600080fd5b820183602082011115610cb057600080fd5b80359060200191846001830284011164010000000083111715610cd257600080fd5b91908080601f016020809104026020016040519081016040528093929190818152602001838380828437600081840152601f19601f8201169050808301925050505050505091929192908035906020019092919080359060200190640100000000811115610d3f57600080fd5b820183602082011115610d5157600080fd5b80359060200191846001830284011164010000000083111715610d7357600080fd5b91908080601f016020809104026020016040519081016040528093929190818152602001838380828437600081840152601f19601f82011690508083019250505050505050919291929080359060200190929190505050611d64565b005b610dfd60048036036020811015610de757600080fd5b8101908080359060200190929190505050611e7b565b6040518082815260200191505060405180910390f35b610e3f60048036036020811015610e2957600080fd5b8101908080359060200190929190505050611e9e565b6040518082815260200191505060405180910390f35b610e8160048036036020811015610e6b57600080fd5b8101908080359060200190929190505050611ec0565b6040518082815260200191505060405180910390f35b610ec360048036036020811015610ead57600080fd5b8101908080359060200190929190505050611ee3565b6040518087815260200180602001868152602001806020018581526020018473ffffffffffffffffffffffffffffffffffffffff1673ffffffffffffffffffffffffffffffffffffffff168152602001838103835288818151815260200191508051906020019080838360005b83811015610f4b578082015181840152602081019050610f30565b50505050905090810190601f168015610f785780820380516001836020036101000a031916815260200191505b50838103825286818151815260200191508051906020019080838360005b83811015610fb1578082015181840152602081019050610f96565b50505050905090810190601f168015610fde5780820380516001836020036101000a031916815260200191505b509850505050505050505060405180910390f35b61101e6004803603602081101561100857600080fd5b810190808035906020019092919050505061206f565b604051808273ffffffffffffffffffffffffffffffffffffffff1673ffffffffffffffffffffffffffffffffffffffff16815260200191505060405180910390f35b61108c6004803603602081101561107657600080fd5b81019080803590602001909291905050506120b1565b604051808273ffffffffffffffffffffffffffffffffffffffff1673ffffffffffffffffffffffffffffffffffffffff16815260200191505060405180910390f35b6110fa600480360360208110156110e457600080fd5b81019080803590602001909291905050506120f4565b6040518082815260200191505060405180910390f35b61113c6004803603602081101561112657600080fd5b8101908080359060200190929190505050612117565b6040518082815260200191505060405180910390f35b61117e6004803603602081101561116857600080fd5b810190808035906020019092919050505061213a565b6040518080602001828103825283818151815260200191508051906020019060200280838360005b838110156111c15780820151818401526020810190506111a6565b505050509050019250505060405180910390f35b611201600480360360208110156111eb57600080fd5b81019080803590602001909291905050506121fc565b6040518080602001828103825283818151815260200191508051906020019060200280838360005b83811015611244578082015181840152602081019050611229565b505050509050019250505060405180910390f35b6112606122be565b6040518082815260200191505060405180910390f35b61127e6122c4565b6040518082815260200191505060405180910390f35b6060600160006001840381526020019081526020016000206001018054600181600116156101000203166002900480601f0160208091040260200160405190810160405280929190818152602001828054600181600116156101000203166002900480156113435780601f1061131857610100808354040283529160200191611343565b820191906000526020600020905b81548152906001019060200180831161132657829003601f168201915b50505050509050919050565b6000806000600184038152602001908152602001600020600201549050919050565b6060600260006001840381526020019081526020016000206001018054600181600116156101000203166002900480601f0160208091040260200160405190810160405280929190818152602001828054600181600116156101000203166002900480156114205780601f106113f557610100808354040283529160200191611420565b820191906000526020600020905b81548152906001019060200180831161140357829003601f168201915b50505050509050919050565b6002602052806000526040600020600091509050806000015490806001018054600181600116156101000203166002900480601f0160208091040260200160405190810160405280929190818152602001828054600181600116156101000203166002900480156114de5780601f106114b3576101008083540402835291602001916114de565b820191906000526020600020905b8154815290600101906020018083116114c157829003601f168201915b505050505090806002015490806003018054600181600116156101000203166002900480601f0160208091040260200160405190810160405280929190818152602001828054600181600116156101000203166002900480156115825780601f1061155757610100808354040283529160200191611582565b820191906000526020600020905b81548152906001019060200180831161156557829003601f168201915b5050505050908060040154908060050160009054906101000a900473ffffffffffffffffffffffffffffffffffffffff16905086565b60606000806001840381526020019081526020016000206003018054600181600116156101000203166002900480601f0160208091040260200160405190810160405280929190818152602001828054600181600116156101000203166002900480156116665780601f1061163b57610100808354040283529160200191611666565b820191906000526020600020905b81548152906001019060200180831161164957829003601f168201915b50505050509050919050565b6000602052806000526040600020600091509050806000015490806001018054600181600116156101000203166002900480601f0160208091040260200160405190810160405280929190818152602001828054600181600116156101000203166002900480156117245780601f106116f957610100808354040283529160200191611724565b820191906000526020600020905b81548152906001019060200180831161170757829003601f168201915b505050505090806002015490806003018054600181600116156101000203166002900480601f0160208091040260200160405190810160405280929190818152602001828054600181600116156101000203166002900480156117c85780601f1061179d576101008083540402835291602001916117c8565b820191906000526020600020905b8154815290600101906020018083116117ab57829003601f168201915b5050505050908060040154908060050160009054906101000a900473ffffffffffffffffffffffffffffffffffffffff16905086565b6005600081548092919060010191905055506040518060c0016040528060055481526020018581526020018481526020018381526020018281526020013373ffffffffffffffffffffffffffffffffffffffff168152506002600060016005540381526020019081526020016000206000820151816000015560208201518160010190805190602001906118939291906122ca565b506040820151816002015560608201518160030190805190602001906118ba9291906122ca565b506080820151816004015560a08201518160050160006101000a81548173ffffffffffffffffffffffffffffffffffffffff021916908373ffffffffffffffffffffffffffffffffffffffff16021790555090505050505050565b60006001600060018403815260200190815260200160002060050160009054906101000a900473ffffffffffffffffffffffffffffffffffffffff169050919050565b60608060035460405190808252806020026020018201604052801561198c5781602001602082028038833980820191505090505b509050600080905060008090505b6003548160ff1611611a0d576000808260ff16815260200190815260200160002060040154851415611a00576000808260ff168152602001908152602001600020600001548383815181106119eb57fe5b60200260200101818152505081806001019250505b808060010191505061199a565b508192505050919050565b6003600081548092919060010191905055506040518060c0016040528060035481526020018581526020018481526020018381526020018281526020013373ffffffffffffffffffffffffffffffffffffffff168152506000806001600354038152602001908152602001600020600082015181600001556020820151816001019080519060200190611aac9291906122ca565b50604082015181600201556060820151816003019080519060200190611ad39291906122ca565b506080820151816004015560a08201518160050160006101000a81548173ffffffffffffffffffffffffffffffffffffffff021916908373ffffffffffffffffffffffffffffffffffffffff16021790555090505050505050565b6060600260006001840381526020019081526020016000206003018054600181600116156101000203166002900480601f016020809104026020016040519081016040528092919081815260200182805460018160011615610100020316600290048015611bdd5780601f10611bb257610100808354040283529160200191611bdd565b820191906000526020600020905b815481529060010190602001808311611bc057829003601f168201915b50505050509050919050565b60606000806001840381526020019081526020016000206001018054600181600116156101000203166002900480601f016020809104026020016040519081016040528092919081815260200182805460018160011615610100020316600290048015611c975780601f10611c6c57610100808354040283529160200191611c97565b820191906000526020600020905b815481529060010190602001808311611c7a57829003601f168201915b50505050509050919050565b6060600160006001840381526020019081526020016000206003018054600181600116156101000203166002900480601f016020809104026020016040519081016040528092919081815260200182805460018160011615610100020316600290048015611d525780601f10611d2757610100808354040283529160200191611d52565b820191906000526020600020905b815481529060010190602001808311611d3557829003601f168201915b50505050509050919050565b60045481565b6004600081548092919060010191905055506040518060c0016040528060045481526020018581526020018481526020018381526020018281526020013373ffffffffffffffffffffffffffffffffffffffff16815250600160006001600454038152602001908152602001600020600082015181600001556020820151816001019080519060200190611df99291906122ca565b50604082015181600201556060820151816003019080519060200190611e209291906122ca565b506080820151816004015560a08201518160050160006101000a81548173ffffffffffffffffffffffffffffffffffffffff021916908373ffffffffffffffffffffffffffffffffffffffff16021790555090505050505050565b600060026000600184038152602001908152602001600020600201549050919050565b6000806000600184038152602001908152602001600020600401549050919050565b600060026000600184038152602001908152602001600020600401549050919050565b6001602052806000526040600020600091509050806000015490806001018054600181600116156101000203166002900480601f016020809104026020016040519081016040528092919081815260200182805460018160011615610100020316600290048015611f955780601f10611f6a57610100808354040283529160200191611f95565b820191906000526020600020905b815481529060010190602001808311611f7857829003601f168201915b505050505090806002015490806003018054600181600116156101000203166002900480601f0160208091040260200160405190810160405280929190818152602001828054600181600116156101000203166002900480156120395780601f1061200e57610100808354040283529160200191612039565b820191906000526020600020905b81548152906001019060200180831161201c57829003601f168201915b5050505050908060040154908060050160009054906101000a900473ffffffffffffffffffffffffffffffffffffffff16905086565b600080600060018403815260200190815260200160002060050160009054906101000a900473ffffffffffffffffffffffffffffffffffffffff169050919050565b60006002600060018403815260200190815260200160002060050160009054906101000a900473ffffffffffffffffffffffffffffffffffffffff169050919050565b600060016000600184038152602001908152602001600020600401549050919050565b600060016000600184038152602001908152602001600020600201549050919050565b60608060055460405190808252806020026020018201604052801561216e5781602001602082028038833980820191505090505b509050600080905060008090505b6005548160ff16116121f157600260008260ff168152602001908152602001600020600401548514156121e457600260008260ff168152602001908152602001600020600001548383815181106121cf57fe5b60200260200101818152505081806001019250505b808060010191505061217c565b508192505050919050565b6060806004546040519080825280602002602001820160405280156122305781602001602082028038833980820191505090505b509050600080905060008090505b6004548160ff16116122b357600160008260ff168152602001908152602001600020600401548514156122a657600160008260ff1681526020019081526020016000206000015483838151811061229157fe5b60200260200101818152505081806001019250505b808060010191505061223e565b508192505050919050565b60055481565b60035481565b828054600181600116156101000203166002900490600052602060002090601f016020900481019282601f1061230b57805160ff1916838001178555612339565b82800160010185558215612339579182015b8281111561233857825182559160200191906001019061231d565b5b509050612346919061234a565b5090565b61236c91905b80821115612368576000816000905550600101612350565b5090565b9056fea265627a7a72315820b1fed285fa7e22867958096c3a8b2cd844f697f2f1e3402fcf9a274c2684428464736f6c634300050c0032",
  "source": "pragma solidity ^0.5.0;\n\ncontract Supply {\n    struct Recebeu {\n        uint id;\n        string produto;\n        int quantidade;\n        string qualidade;\n        uint lote;\n        address owner;\n    }\n\n    struct Colhido {\n        uint id;\n        string produto;\n        int quantidade;\n        string qualidade;\n        uint lote;\n        address owner;\n    }\n\n    struct Transportou {\n        uint id;\n        string produto;\n        int quantidade;\n        string qualidade;\n        uint lote;\n        address owner;\n    }\n\n    mapping(uint => Recebeu) public Recebidos;\n    mapping(uint => Colhido) public Colhidos;\n    mapping(uint => Transportou) public Transportados;\n\n    uint public PlantacaoCount;\n    uint public ColheitaCount;\n    uint public TransporteCount;\n\n//ADDERS\n    function addRecebimento(string memory _produto, int _quantidade,string memory _qualidade, uint lote) public {\n        PlantacaoCount ++;\n        Recebidos[PlantacaoCount-1] = Recebeu(PlantacaoCount, _produto, _quantidade,_qualidade,lote,msg.sender);\n    }\n\n    function addColheita(string memory _produto, int _quantidade, string  memory _qualidade, uint lote) public {\n        ColheitaCount ++;\n        Colhidos[ColheitaCount-1] = Colhido(ColheitaCount, _produto, _quantidade,_qualidade, lote,msg.sender);\n    }\n\n    function addTransporte(string memory _produto, int _quantidade, string  memory _qualidade,uint lote) public {\n        TransporteCount ++;\n        Transportados[TransporteCount-1] = Transportou(TransporteCount, _produto, _quantidade,_qualidade,lote,msg.sender);\n    }\n\n//Geters\n   //Produto\n    function getRecebimentoProduto(uint id) public view returns (string memory){\n        return Recebidos[id-1].produto;\n    }\n\n    function getColheitaProduto(uint id) public view returns (string memory){\n        return Colhidos[id-1].produto;\n    }\n\n    function getTransporteProduto(uint id) public view returns (string memory){\n        return Transportados[id-1].produto;\n    }\n\n   //Quantidade\n    function getRecebimentoQuantidade(uint id) public view returns (int){\n        return Recebidos[id-1].quantidade;\n    }\n\n    function getColheitaQuantidade(uint id) public view returns (int){\n        return Colhidos[id-1].quantidade;\n    }\n\n    function getTransporteQuantidade(uint id) public view returns (int){\n        return Transportados[id-1].quantidade;\n    }\n\n   //Qualidade\n    function getRecebimentoQualidade(uint id) public view returns (string memory){\n        return Recebidos[id-1].qualidade;\n    }\n\n    function getColheitaQualidade(uint id) public view returns (string memory){\n        return Colhidos[id-1].qualidade;\n    }\n\n    function getTransporteQualidade(uint id) public view returns (string memory){\n        return Transportados[id-1].qualidade;\n    }\n\n   //Lote\n    function getRecebimentoLote(uint id) public view returns (uint){\n        return Recebidos[id-1].lote;\n    }\n\n    function getColheitaLote(uint id) public view returns (uint){\n        return Colhidos[id-1].lote;\n    }\n\n    function getTransporteLote(uint id) public view returns (uint){\n        return Transportados[id-1].lote;\n    }\n\n   //Owner\n    function getRecebimentoOwner(uint id) public view returns (address){\n        return Recebidos[id-1].owner;\n    }\n\n    function getColheitaOwner(uint id) public view returns (address){\n        return Colhidos[id-1].owner;\n    }\n\n    function getTransporteOwner(uint id) public view returns (address){\n        return Transportados[id-1].owner;\n    }\n\n   //Ids por Lote\n    function getRecebimentoIdPorLote(uint lote) public view returns (uint[] memory){\n\n        uint[] memory array = new uint[](PlantacaoCount);\n        uint j = 0;\n        for(uint8 i = 0; i <= PlantacaoCount; i++){\n            if (lote==Recebidos[i].lote){\n                array[j] = (Recebidos[i].id);\n                j++;\n            }\n        }\n        return array;\n    }\n\n    function getColheitaIdPorLote(uint lote) public view returns (uint[] memory){\n\n        uint[] memory array = new uint[](ColheitaCount);\n        uint j = 0;\n        for(uint8 i = 0; i <= ColheitaCount; i++){\n            if (lote==Colhidos[i].lote){\n                array[j] = (Colhidos[i].id);\n                j++;\n            }\n        }\n        return array;\n    }\n\n    function getTransporteIdPorLote(uint lote) public view returns (uint[] memory){\n\n        uint[] memory array = new uint[](TransporteCount);\n        uint j = 0;\n        for(uint8 i = 0; i <= TransporteCount; i++){\n            if (lote==Transportados[i].lote){\n                array[j] = (Transportados[i].id);\n                j++;\n            }\n        }\n        return array;\n    }\n\n}\n\n\n",
  "sourcePath": "/home/user/Documents/Ativos/Projeto/contracts/Supply.sol",
  "compiler": {
    "name": "solc",
    "version": "0.5.12+commit.7709ece9.Emscripten.clang"
  },
  "schemaVersion": "3.0.19",
  "updatedAt": "2019-12-02T21:53:50.104Z",
  "networkType": "ethereum",
  "devdoc": {
    "methods": {}
  },
  "userdoc": {
    "methods": {}
  }
}