{
  "contractName": "Transporte",
  "abi": [
    {
      "constant": true,
      "inputs": [
        {
          "internalType": "uint256",
          "name": "",
          "type": "uint256"
        }
      ],
      "name": "Transportados",
      "outputs": [
        {
          "internalType": "uint256",
          "name": "id",
          "type": "uint256"
        },
        {
          "internalType": "string",
          "name": "produto",
          "type": "string"
        },
        {
          "internalType": "int256",
          "name": "quantidade",
          "type": "int256"
        },
        {
          "internalType": "string",
          "name": "qualidade",
          "type": "string"
        },
        {
          "internalType": "uint256",
          "name": "lote",
          "type": "uint256"
        }
      ],
      "payable": false,
      "stateMutability": "view",
      "type": "function"
    },
    {
      "constant": true,
      "inputs": [],
      "name": "TransporteCount",
      "outputs": [
        {
          "internalType": "uint256",
          "name": "",
          "type": "uint256"
        }
      ],
      "payable": false,
      "stateMutability": "view",
      "type": "function"
    },
    {
      "constant": false,
      "inputs": [
        {
          "internalType": "string",
          "name": "_produto",
          "type": "string"
        },
        {
          "internalType": "int256",
          "name": "_quantidade",
          "type": "int256"
        },
        {
          "internalType": "string",
          "name": "_qualidade",
          "type": "string"
        },
        {
          "internalType": "uint256",
          "name": "lote",
          "type": "uint256"
        }
      ],
      "name": "addTransporte",
      "outputs": [],
      "payable": false,
      "stateMutability": "nonpayable",
      "type": "function"
    },
    {
      "constant": true,
      "inputs": [
        {
          "internalType": "uint256",
          "name": "id",
          "type": "uint256"
        }
      ],
      "name": "getTransporteProduto",
      "outputs": [
        {
          "internalType": "string",
          "name": "",
          "type": "string"
        }
      ],
      "payable": false,
      "stateMutability": "view",
      "type": "function"
    },
    {
      "constant": true,
      "inputs": [
        {
          "internalType": "uint256",
          "name": "id",
          "type": "uint256"
        }
      ],
      "name": "getTransporteQuantidade",
      "outputs": [
        {
          "internalType": "int256",
          "name": "",
          "type": "int256"
        }
      ],
      "payable": false,
      "stateMutability": "view",
      "type": "function"
    },
    {
      "constant": true,
      "inputs": [
        {
          "internalType": "uint256",
          "name": "id",
          "type": "uint256"
        }
      ],
      "name": "getTransporteQualidade",
      "outputs": [
        {
          "internalType": "string",
          "name": "",
          "type": "string"
        }
      ],
      "payable": false,
      "stateMutability": "view",
      "type": "function"
    },
    {
      "constant": true,
      "inputs": [
        {
          "internalType": "uint256",
          "name": "id",
          "type": "uint256"
        }
      ],
      "name": "getTransporteLote",
      "outputs": [
        {
          "internalType": "uint256",
          "name": "",
          "type": "uint256"
        }
      ],
      "payable": false,
      "stateMutability": "view",
      "type": "function"
    },
    {
      "constant": true,
      "inputs": [
        {
          "internalType": "uint256",
          "name": "lote",
          "type": "uint256"
        }
      ],
      "name": "getTransporteIdPorLote",
      "outputs": [
        {
          "internalType": "uint256[]",
          "name": "",
          "type": "uint256[]"
        }
      ],
      "payable": false,
      "stateMutability": "view",
      "type": "function"
    }
  ],
  "bytecode": "0x608060405234801561001057600080fd5b50610af2806100206000396000f3fe608060405234801561001057600080fd5b50600436106100885760003560e01c8063be19f45f1161005b578063be19f45f14610469578063c44f1786146104ab578063ee1062c3146104ed578063f3446a761461057057610088565b806339a9b2981461008d5780633c89df85146101345780634356e9181461025c578063596babe6146103c2575b600080fd5b6100b9600480360360208110156100a357600080fd5b810190808035906020019092919050505061058e565b6040518080602001828103825283818151815260200191508051906020019080838360005b838110156100f95780820151818401526020810190506100de565b50505050905090810190601f1680156101265780820380516001836020036101000a031916815260200191505b509250505060405180910390f35b6101606004803603602081101561014a57600080fd5b8101908080359060200190929190505050610645565b604051808681526020018060200185815260200180602001848152602001838103835287818151815260200191508051906020019080838360005b838110156101b657808201518184015260208101905061019b565b50505050905090810190601f1680156101e35780820380516001836020036101000a031916815260200191505b50838103825285818151815260200191508051906020019080838360005b8381101561021c578082015181840152602081019050610201565b50505050905090810190601f1680156102495780820380516001836020036101000a031916815260200191505b5097505050505050505060405180910390f35b6103c06004803603608081101561027257600080fd5b810190808035906020019064010000000081111561028f57600080fd5b8201836020820111156102a157600080fd5b803590602001918460018302840111640100000000831117156102c357600080fd5b91908080601f016020809104026020016040519081016040528093929190818152602001838380828437600081840152601f19601f820116905080830192505050505050509192919290803590602001909291908035906020019064010000000081111561033057600080fd5b82018360208201111561034257600080fd5b8035906020019184600183028401116401000000008311171561036457600080fd5b91908080601f016020809104026020016040519081016040528093929190818152602001838380828437600081840152601f19601f820116905080830192505050505050509192919290803590602001909291905050506107ab565b005b6103ee600480360360208110156103d857600080fd5b810190808035906020019092919050505061085d565b6040518080602001828103825283818151815260200191508051906020019080838360005b8381101561042e578082015181840152602081019050610413565b50505050905090810190601f16801561045b5780820380516001836020036101000a031916815260200191505b509250505060405180910390f35b6104956004803603602081101561047f57600080fd5b8101908080359060200190929190505050610914565b6040518082815260200191505060405180910390f35b6104d7600480360360208110156104c157600080fd5b8101908080359060200190929190505050610933565b6040518082815260200191505060405180910390f35b6105196004803603602081101561050357600080fd5b8101908080359060200190929190505050610952565b6040518080602001828103825283818151815260200191508051906020019060200280838360005b8381101561055c578082015181840152602081019050610541565b505050509050019250505060405180910390f35b610578610a12565b6040518082815260200191505060405180910390f35b60606000808381526020019081526020016000206001018054600181600116156101000203166002900480601f0160208091040260200160405190810160405280929190818152602001828054600181600116156101000203166002900480156106395780601f1061060e57610100808354040283529160200191610639565b820191906000526020600020905b81548152906001019060200180831161061c57829003601f168201915b50505050509050919050565b6000602052806000526040600020600091509050806000015490806001018054600181600116156101000203166002900480601f0160208091040260200160405190810160405280929190818152602001828054600181600116156101000203166002900480156106f75780601f106106cc576101008083540402835291602001916106f7565b820191906000526020600020905b8154815290600101906020018083116106da57829003601f168201915b505050505090806002015490806003018054600181600116156101000203166002900480601f01602080910402602001604051908101604052809291908181526020018280546001816001161561010002031660029004801561079b5780601f106107705761010080835404028352916020019161079b565b820191906000526020600020905b81548152906001019060200180831161077e57829003601f168201915b5050505050908060040154905085565b6001600081548092919060010191905055506040518060a0016040528060015481526020018581526020018481526020018381526020018281525060008060018054038152602001908152602001600020600082015181600001556020820151816001019080519060200190610822929190610a18565b50604082015181600201556060820151816003019080519060200190610849929190610a18565b506080820151816004015590505050505050565b60606000808381526020019081526020016000206003018054600181600116156101000203166002900480601f0160208091040260200160405190810160405280929190818152602001828054600181600116156101000203166002900480156109085780601f106108dd57610100808354040283529160200191610908565b820191906000526020600020905b8154815290600101906020018083116108eb57829003601f168201915b50505050509050919050565b6000806000838152602001908152602001600020600201549050919050565b6000806000838152602001908152602001600020600401549050919050565b6060806001546040519080825280602002602001820160405280156109865781602001602082028038833980820191505090505b509050600080905060008090505b6001548160ff1611610a07576000808260ff168152602001908152602001600020600401548514156109fa576000808260ff168152602001908152602001600020600001548383815181106109e557fe5b60200260200101818152505081806001019250505b8080600101915050610994565b508192505050919050565b60015481565b828054600181600116156101000203166002900490600052602060002090601f016020900481019282601f10610a5957805160ff1916838001178555610a87565b82800160010185558215610a87579182015b82811115610a86578251825591602001919060010190610a6b565b5b509050610a949190610a98565b5090565b610aba91905b80821115610ab6576000816000905550600101610a9e565b5090565b9056fea265627a7a723158203e022ee7d9b4aeca4a92e1b573a05e3082fbb8441406b9c68783c612d86ad46b64736f6c634300050c0032",
  "source": "pragma solidity ^0.5.0;\n\ncontract Transporte {\n    struct Transportou {\n        uint id;\n        string produto;\n        int quantidade;\n        string qualidade;\n        uint lote;\n    }\n\n    mapping(uint => Transportou) public Transportados;\n\n    uint public TransporteCount;\n\n    function addTransporte(string memory _produto, int _quantidade, string  memory _qualidade,uint lote) public {\n        TransporteCount ++;\n        Transportados[TransporteCount-1] = Transportou(TransporteCount, _produto, _quantidade,_qualidade,lote);\n    }\n\n    function getTransporteProduto(uint id) public view returns (string memory){\n        return Transportados[id].produto;\n    }\n    function getTransporteQuantidade(uint id) public view returns (int){\n        return Transportados[id].quantidade;\n    }\n    function getTransporteQualidade(uint id) public view returns (string memory){\n        return Transportados[id].qualidade;\n    }\n    function getTransporteLote(uint id) public view returns (uint){\n        return Transportados[id].lote;\n    }\n    function getTransporteIdPorLote(uint lote) public view returns (uint[] memory){\n\n        uint[] memory array = new uint[](TransporteCount);\n        uint j = 0;\n        for(uint8 i = 0; i <= TransporteCount; i++){\n            if (lote==Transportados[i].lote){\n                array[j] = (Transportados[i].id);\n                j++;\n            }\n        }\n        return array;\n    }\n}",
  "sourcePath": "/home/user/Documents/Ativos/Projeto/contracts/Transporte.sol",
  "compiler": {
    "name": "solc",
    "version": "0.5.12+commit.7709ece9.Emscripten.clang"
  },
  "schemaVersion": "3.0.19",
  "updatedAt": "2019-12-02T21:44:35.419Z",
  "devdoc": {
    "methods": {}
  },
  "userdoc": {
    "methods": {}
  }
}